{
  "_format": "hh-sol-artifact-1",
  "contractName": "EVO",
  "sourceName": "contracts/ERC20/EVO.sol",
  "abi": [
    {
      "inputs": [],
      "stateMutability": "nonpayable",
      "type": "constructor"
    },
    {
      "inputs": [],
      "name": "AccessControlBadConfirmation",
      "type": "error"
    },
    {
      "inputs": [
        {
          "internalType": "address",
          "name": "account",
          "type": "address"
        },
        {
          "internalType": "bytes32",
          "name": "neededRole",
          "type": "bytes32"
        }
      ],
      "name": "AccessControlUnauthorizedAccount",
      "type": "error"
    },
    {
      "inputs": [
        {
          "internalType": "address",
          "name": "authority",
          "type": "address"
        }
      ],
      "name": "AccessManagedInvalidAuthority",
      "type": "error"
    },
    {
      "inputs": [
        {
          "internalType": "address",
          "name": "caller",
          "type": "address"
        },
        {
          "internalType": "uint32",
          "name": "delay",
          "type": "uint32"
        }
      ],
      "name": "AccessManagedRequiredDelay",
      "type": "error"
    },
    {
      "inputs": [
        {
          "internalType": "address",
          "name": "caller",
          "type": "address"
        }
      ],
      "name": "AccessManagedUnauthorized",
      "type": "error"
    },
    {
      "inputs": [],
      "name": "ECDSAInvalidSignature",
      "type": "error"
    },
    {
      "inputs": [
        {
          "internalType": "uint256",
          "name": "length",
          "type": "uint256"
        }
      ],
      "name": "ECDSAInvalidSignatureLength",
      "type": "error"
    },
    {
      "inputs": [
        {
          "internalType": "bytes32",
          "name": "s",
          "type": "bytes32"
        }
      ],
      "name": "ECDSAInvalidSignatureS",
      "type": "error"
    },
    {
      "inputs": [
        {
          "internalType": "uint256",
          "name": "increasedSupply",
          "type": "uint256"
        },
        {
          "internalType": "uint256",
          "name": "cap",
          "type": "uint256"
        }
      ],
      "name": "ERC20ExceededCap",
      "type": "error"
    },
    {
      "inputs": [
        {
          "internalType": "address",
          "name": "spender",
          "type": "address"
        },
        {
          "internalType": "uint256",
          "name": "allowance",
          "type": "uint256"
        },
        {
          "internalType": "uint256",
          "name": "needed",
          "type": "uint256"
        }
      ],
      "name": "ERC20InsufficientAllowance",
      "type": "error"
    },
    {
      "inputs": [
        {
          "internalType": "address",
          "name": "sender",
          "type": "address"
        },
        {
          "internalType": "uint256",
          "name": "balance",
          "type": "uint256"
        },
        {
          "internalType": "uint256",
          "name": "needed",
          "type": "uint256"
        }
      ],
      "name": "ERC20InsufficientBalance",
      "type": "error"
    },
    {
      "inputs": [
        {
          "internalType": "address",
          "name": "approver",
          "type": "address"
        }
      ],
      "name": "ERC20InvalidApprover",
      "type": "error"
    },
    {
      "inputs": [
        {
          "internalType": "uint256",
          "name": "cap",
          "type": "uint256"
        }
      ],
      "name": "ERC20InvalidCap",
      "type": "error"
    },
    {
      "inputs": [
        {
          "internalType": "address",
          "name": "receiver",
          "type": "address"
        }
      ],
      "name": "ERC20InvalidReceiver",
      "type": "error"
    },
    {
      "inputs": [
        {
          "internalType": "address",
          "name": "sender",
          "type": "address"
        }
      ],
      "name": "ERC20InvalidSender",
      "type": "error"
    },
    {
      "inputs": [
        {
          "internalType": "address",
          "name": "spender",
          "type": "address"
        }
      ],
      "name": "ERC20InvalidSpender",
      "type": "error"
    },
    {
      "inputs": [
        {
          "internalType": "uint256",
          "name": "deadline",
          "type": "uint256"
        }
      ],
      "name": "ERC2612ExpiredSignature",
      "type": "error"
    },
    {
      "inputs": [
        {
          "internalType": "address",
          "name": "signer",
          "type": "address"
        },
        {
          "internalType": "address",
          "name": "owner",
          "type": "address"
        }
      ],
      "name": "ERC2612InvalidSigner",
      "type": "error"
    },
    {
      "inputs": [],
      "name": "EnforcedPause",
      "type": "error"
    },
    {
      "inputs": [],
      "name": "ExpectedPause",
      "type": "error"
    },
    {
      "inputs": [
        {
          "internalType": "address",
          "name": "account",
          "type": "address"
        },
        {
          "internalType": "uint256",
          "name": "currentNonce",
          "type": "uint256"
        }
      ],
      "name": "InvalidAccountNonce",
      "type": "error"
    },
    {
      "inputs": [],
      "name": "InvalidInitialization",
      "type": "error"
    },
    {
      "inputs": [],
      "name": "NotInitializing",
      "type": "error"
    },
    {
      "anonymous": false,
      "inputs": [
        {
          "indexed": true,
          "internalType": "address",
          "name": "owner",
          "type": "address"
        },
        {
          "indexed": true,
          "internalType": "address",
          "name": "spender",
          "type": "address"
        },
        {
          "indexed": false,
          "internalType": "uint256",
          "name": "value",
          "type": "uint256"
        }
      ],
      "name": "Approval",
      "type": "event"
    },
    {
      "anonymous": false,
      "inputs": [
        {
          "indexed": false,
          "internalType": "address",
          "name": "authority",
          "type": "address"
        }
      ],
      "name": "AuthorityUpdated",
      "type": "event"
    },
    {
      "anonymous": false,
      "inputs": [],
      "name": "EIP712DomainChanged",
      "type": "event"
    },
    {
      "anonymous": false,
      "inputs": [
        {
          "indexed": false,
          "internalType": "uint64",
          "name": "version",
          "type": "uint64"
        }
      ],
      "name": "Initialized",
      "type": "event"
    },
    {
      "anonymous": false,
      "inputs": [
        {
          "indexed": false,
          "internalType": "address",
          "name": "account",
          "type": "address"
        }
      ],
      "name": "Paused",
      "type": "event"
    },
    {
      "anonymous": false,
      "inputs": [
        {
          "indexed": true,
          "internalType": "bytes32",
          "name": "role",
          "type": "bytes32"
        },
        {
          "indexed": true,
          "internalType": "bytes32",
          "name": "previousAdminRole",
          "type": "bytes32"
        },
        {
          "indexed": true,
          "internalType": "bytes32",
          "name": "newAdminRole",
          "type": "bytes32"
        }
      ],
      "name": "RoleAdminChanged",
      "type": "event"
    },
    {
      "anonymous": false,
      "inputs": [
        {
          "indexed": true,
          "internalType": "bytes32",
          "name": "role",
          "type": "bytes32"
        },
        {
          "indexed": true,
          "internalType": "address",
          "name": "account",
          "type": "address"
        },
        {
          "indexed": true,
          "internalType": "address",
          "name": "sender",
          "type": "address"
        }
      ],
      "name": "RoleGranted",
      "type": "event"
    },
    {
      "anonymous": false,
      "inputs": [
        {
          "indexed": true,
          "internalType": "bytes32",
          "name": "role",
          "type": "bytes32"
        },
        {
          "indexed": true,
          "internalType": "address",
          "name": "account",
          "type": "address"
        },
        {
          "indexed": true,
          "internalType": "address",
          "name": "sender",
          "type": "address"
        }
      ],
      "name": "RoleRevoked",
      "type": "event"
    },
    {
      "anonymous": false,
      "inputs": [
        {
          "indexed": true,
          "internalType": "address",
          "name": "from",
          "type": "address"
        },
        {
          "indexed": true,
          "internalType": "address",
          "name": "to",
          "type": "address"
        },
        {
          "indexed": false,
          "internalType": "uint256",
          "name": "value",
          "type": "uint256"
        }
      ],
      "name": "Transfer",
      "type": "event"
    },
    {
      "anonymous": false,
      "inputs": [
        {
          "indexed": false,
          "internalType": "address",
          "name": "account",
          "type": "address"
        }
      ],
      "name": "Unpaused",
      "type": "event"
    },
    {
      "inputs": [],
      "name": "ADMIN_ROLE",
      "outputs": [
        {
          "internalType": "bytes32",
          "name": "",
          "type": "bytes32"
        }
      ],
      "stateMutability": "view",
      "type": "function"
    },
    {
      "inputs": [],
      "name": "DEFAULT_ADMIN_ROLE",
      "outputs": [
        {
          "internalType": "bytes32",
          "name": "",
          "type": "bytes32"
        }
      ],
      "stateMutability": "view",
      "type": "function"
    },
    {
      "inputs": [],
      "name": "DOMAIN_SEPARATOR",
      "outputs": [
        {
          "internalType": "bytes32",
          "name": "",
          "type": "bytes32"
        }
      ],
      "stateMutability": "view",
      "type": "function"
    },
    {
      "inputs": [],
      "name": "MINTER_ROLE",
      "outputs": [
        {
          "internalType": "bytes32",
          "name": "",
          "type": "bytes32"
        }
      ],
      "stateMutability": "view",
      "type": "function"
    },
    {
      "inputs": [
        {
          "internalType": "address",
          "name": "owner",
          "type": "address"
        },
        {
          "internalType": "address",
          "name": "spender",
          "type": "address"
        }
      ],
      "name": "allowance",
      "outputs": [
        {
          "internalType": "uint256",
          "name": "",
          "type": "uint256"
        }
      ],
      "stateMutability": "view",
      "type": "function"
    },
    {
      "inputs": [
        {
          "internalType": "address",
          "name": "spender",
          "type": "address"
        },
        {
          "internalType": "uint256",
          "name": "value",
          "type": "uint256"
        }
      ],
      "name": "approve",
      "outputs": [
        {
          "internalType": "bool",
          "name": "",
          "type": "bool"
        }
      ],
      "stateMutability": "nonpayable",
      "type": "function"
    },
    {
      "inputs": [],
      "name": "authority",
      "outputs": [
        {
          "internalType": "address",
          "name": "",
          "type": "address"
        }
      ],
      "stateMutability": "view",
      "type": "function"
    },
    {
      "inputs": [
        {
          "internalType": "address",
          "name": "account",
          "type": "address"
        }
      ],
      "name": "balanceOf",
      "outputs": [
        {
          "internalType": "uint256",
          "name": "",
          "type": "uint256"
        }
      ],
      "stateMutability": "view",
      "type": "function"
    },
    {
      "inputs": [
        {
          "internalType": "uint256",
          "name": "amount",
          "type": "uint256"
        }
      ],
      "name": "burn",
      "outputs": [],
      "stateMutability": "nonpayable",
      "type": "function"
    },
    {
      "inputs": [
        {
          "internalType": "address",
          "name": "account",
          "type": "address"
        },
        {
          "internalType": "uint256",
          "name": "amount",
          "type": "uint256"
        }
      ],
      "name": "burnFrom",
      "outputs": [],
      "stateMutability": "nonpayable",
      "type": "function"
    },
    {
      "inputs": [],
      "name": "cap",
      "outputs": [
        {
          "internalType": "uint256",
          "name": "",
          "type": "uint256"
        }
      ],
      "stateMutability": "view",
      "type": "function"
    },
    {
      "inputs": [],
      "name": "decimals",
      "outputs": [
        {
          "internalType": "uint8",
          "name": "",
          "type": "uint8"
        }
      ],
      "stateMutability": "view",
      "type": "function"
    },
    {
      "inputs": [],
      "name": "eip712Domain",
      "outputs": [
        {
          "internalType": "bytes1",
          "name": "fields",
          "type": "bytes1"
        },
        {
          "internalType": "string",
          "name": "name",
          "type": "string"
        },
        {
          "internalType": "string",
          "name": "version",
          "type": "string"
        },
        {
          "internalType": "uint256",
          "name": "chainId",
          "type": "uint256"
        },
        {
          "internalType": "address",
          "name": "verifyingContract",
          "type": "address"
        },
        {
          "internalType": "bytes32",
          "name": "salt",
          "type": "bytes32"
        },
        {
          "internalType": "uint256[]",
          "name": "extensions",
          "type": "uint256[]"
        }
      ],
      "stateMutability": "view",
      "type": "function"
    },
    {
      "inputs": [
        {
          "internalType": "bytes32",
          "name": "role",
          "type": "bytes32"
        }
      ],
      "name": "getRoleAdmin",
      "outputs": [
        {
          "internalType": "bytes32",
          "name": "",
          "type": "bytes32"
        }
      ],
      "stateMutability": "view",
      "type": "function"
    },
    {
      "inputs": [
        {
          "internalType": "bytes32",
          "name": "role",
          "type": "bytes32"
        },
        {
          "internalType": "address",
          "name": "account",
          "type": "address"
        }
      ],
      "name": "grantRole",
      "outputs": [],
      "stateMutability": "nonpayable",
      "type": "function"
    },
    {
      "inputs": [
        {
          "internalType": "bytes32",
          "name": "role",
          "type": "bytes32"
        },
        {
          "internalType": "address",
          "name": "account",
          "type": "address"
        }
      ],
      "name": "hasRole",
      "outputs": [
        {
          "internalType": "bool",
          "name": "",
          "type": "bool"
        }
      ],
      "stateMutability": "view",
      "type": "function"
    },
    {
      "inputs": [],
      "name": "initialize",
      "outputs": [],
      "stateMutability": "nonpayable",
      "type": "function"
    },
    {
      "inputs": [],
      "name": "isConsumingScheduledOp",
      "outputs": [
        {
          "internalType": "bytes4",
          "name": "",
          "type": "bytes4"
        }
      ],
      "stateMutability": "view",
      "type": "function"
    },
    {
      "inputs": [
        {
          "internalType": "address",
          "name": "to",
          "type": "address"
        },
        {
          "internalType": "uint256",
          "name": "amount",
          "type": "uint256"
        }
      ],
      "name": "mint",
      "outputs": [],
      "stateMutability": "nonpayable",
      "type": "function"
    },
    {
      "inputs": [],
      "name": "name",
      "outputs": [
        {
          "internalType": "string",
          "name": "",
          "type": "string"
        }
      ],
      "stateMutability": "view",
      "type": "function"
    },
    {
      "inputs": [
        {
          "internalType": "address",
          "name": "owner",
          "type": "address"
        }
      ],
      "name": "nonces",
      "outputs": [
        {
          "internalType": "uint256",
          "name": "",
          "type": "uint256"
        }
      ],
      "stateMutability": "view",
      "type": "function"
    },
    {
      "inputs": [],
      "name": "pause",
      "outputs": [],
      "stateMutability": "nonpayable",
      "type": "function"
    },
    {
      "inputs": [],
      "name": "paused",
      "outputs": [
        {
          "internalType": "bool",
          "name": "",
          "type": "bool"
        }
      ],
      "stateMutability": "view",
      "type": "function"
    },
    {
      "inputs": [
        {
          "internalType": "address",
          "name": "owner",
          "type": "address"
        },
        {
          "internalType": "address",
          "name": "spender",
          "type": "address"
        },
        {
          "internalType": "uint256",
          "name": "value",
          "type": "uint256"
        },
        {
          "internalType": "uint256",
          "name": "deadline",
          "type": "uint256"
        },
        {
          "internalType": "uint8",
          "name": "v",
          "type": "uint8"
        },
        {
          "internalType": "bytes32",
          "name": "r",
          "type": "bytes32"
        },
        {
          "internalType": "bytes32",
          "name": "s",
          "type": "bytes32"
        }
      ],
      "name": "permit",
      "outputs": [],
      "stateMutability": "nonpayable",
      "type": "function"
    },
    {
      "inputs": [
        {
          "internalType": "bytes32",
          "name": "role",
          "type": "bytes32"
        },
        {
          "internalType": "address",
          "name": "callerConfirmation",
          "type": "address"
        }
      ],
      "name": "renounceRole",
      "outputs": [],
      "stateMutability": "nonpayable",
      "type": "function"
    },
    {
      "inputs": [
        {
          "internalType": "bytes32",
          "name": "role",
          "type": "bytes32"
        },
        {
          "internalType": "address",
          "name": "account",
          "type": "address"
        }
      ],
      "name": "revokeRole",
      "outputs": [],
      "stateMutability": "nonpayable",
      "type": "function"
    },
    {
      "inputs": [
        {
          "internalType": "address",
          "name": "newAuthority",
          "type": "address"
        }
      ],
      "name": "setAuthority",
      "outputs": [],
      "stateMutability": "nonpayable",
      "type": "function"
    },
    {
      "inputs": [
        {
          "internalType": "bytes4",
          "name": "interfaceId",
          "type": "bytes4"
        }
      ],
      "name": "supportsInterface",
      "outputs": [
        {
          "internalType": "bool",
          "name": "",
          "type": "bool"
        }
      ],
      "stateMutability": "view",
      "type": "function"
    },
    {
      "inputs": [],
      "name": "symbol",
      "outputs": [
        {
          "internalType": "string",
          "name": "",
          "type": "string"
        }
      ],
      "stateMutability": "view",
      "type": "function"
    },
    {
      "inputs": [],
      "name": "totalBurned",
      "outputs": [
        {
          "internalType": "uint256",
          "name": "",
          "type": "uint256"
        }
      ],
      "stateMutability": "view",
      "type": "function"
    },
    {
      "inputs": [],
      "name": "totalSupply",
      "outputs": [
        {
          "internalType": "uint256",
          "name": "",
          "type": "uint256"
        }
      ],
      "stateMutability": "view",
      "type": "function"
    },
    {
      "inputs": [
        {
          "internalType": "address",
          "name": "to",
          "type": "address"
        },
        {
          "internalType": "uint256",
          "name": "value",
          "type": "uint256"
        }
      ],
      "name": "transfer",
      "outputs": [
        {
          "internalType": "bool",
          "name": "",
          "type": "bool"
        }
      ],
      "stateMutability": "nonpayable",
      "type": "function"
    },
    {
      "inputs": [
        {
          "internalType": "address",
          "name": "from",
          "type": "address"
        },
        {
          "internalType": "address",
          "name": "to",
          "type": "address"
        },
        {
          "internalType": "uint256",
          "name": "value",
          "type": "uint256"
        }
      ],
      "name": "transferFrom",
      "outputs": [
        {
          "internalType": "bool",
          "name": "",
          "type": "bool"
        }
      ],
      "stateMutability": "nonpayable",
      "type": "function"
    },
    {
      "inputs": [],
      "name": "unpause",
      "outputs": [],
      "stateMutability": "nonpayable",
      "type": "function"
    }
  ],
  "bytecode": "0x608060405234801561001057600080fd5b5061001961001e565b6100d0565b7ff0c57e16840df040f15088dc2f81fe391c3923bec73e23a9662efc9c229c6a00805468010000000000000000900460ff161561006e5760405163f92ee8a960e01b815260040160405180910390fd5b80546001600160401b03908116146100cd5780546001600160401b0319166001600160401b0390811782556040519081527fc7f505b2f371ae2175ee4913f4499e1f2633a7b5936321eed1cdaeb6115181d29060200160405180910390a15b50565b611efc806100df6000396000f3fe608060405234801561001057600080fd5b50600436106102065760003560e01c806379cc67901161011a57806395d89b41116100ad578063d505accf1161007c578063d505accf1461044a578063d53913931461045d578063d547741f14610484578063d89135cd14610497578063dd62ed3e1461049f57600080fd5b806395d89b41146103ff578063a217fddf14610407578063a9059cbb1461040f578063bf7e214f1461042257600080fd5b80638456cb59116100e95780638456cb59146103a857806384b0196e146103b05780638fb36037146103cb57806391d14854146103ec57600080fd5b806379cc6790146103675780637a9e5e4b1461037a5780637ecebe001461038d5780638129fc1c146103a057600080fd5b8063355274ea1161019d57806340c10f191161016c57806340c10f191461030157806342966c68146103145780635c975abb1461032757806370a082311461033f57806375b238fc1461035257600080fd5b8063355274ea146102d65780633644e515146102de57806336568abe146102e65780633f4ba83a146102f957600080fd5b806323b872dd116101d957806323b872dd1461028c578063248a9ca31461029f5780632f2ff15d146102b2578063313ce567146102c757600080fd5b806301ffc9a71461020b57806306fdde0314610233578063095ea7b31461024857806318160ddd1461025b575b600080fd5b61021e6102193660046119b7565b6104b2565b60405190151581526020015b60405180910390f35b61023b6104e9565b60405161022a9190611a2e565b61021e610256366004611a5d565b610592565b7f52c63247e1f47db19d5ce0460030c497f067ca4cebf71ba98eeadabe20bace02545b60405190815260200161022a565b61021e61029a366004611a87565b6105aa565b61027e6102ad366004611ac3565b6105ce565b6102c56102c0366004611adc565b6105f0565b005b6040516012815260200161022a565b61027e610612565b61027e610647565b6102c56102f4366004611adc565b610651565b6102c5610689565b6102c561030f366004611a5d565b6106ac565b6102c5610322366004611ac3565b6106e0565b600080516020611e878339815191525460ff1661021e565b61027e61034d366004611b08565b610701565b61027e600080516020611ea783398151915281565b6102c5610375366004611a5d565b610734565b6102c5610388366004611b08565b610774565b61027e61039b366004611b08565b610813565b6102c561081e565b6102c5610a22565b6103b8610a42565b60405161022a9796959493929190611b23565b6103d3610aee565b6040516001600160e01b0319909116815260200161022a565b61021e6103fa366004611adc565b610b27565b61023b610b5f565b61027e600081565b61021e61041d366004611a5d565b610b9e565b600080516020611e07833981519152546040516001600160a01b03909116815260200161022a565b6102c5610458366004611bb9565b610bac565b61027e7f9f2df0fed2c77648de5860a4cc508cd0818c85b8b8a1ab4ceeef8d981c8956a681565b6102c5610492366004611adc565b610d05565b60005461027e565b61027e6104ad366004611c2c565b610d21565b60006001600160e01b03198216637965db0b60e01b14806104e357506301ffc9a760e01b6001600160e01b03198316145b92915050565b60606000600080516020611e278339815191525b905080600301805461050e90611c56565b80601f016020809104026020016040519081016040528092919081815260200182805461053a90611c56565b80156105875780601f1061055c57610100808354040283529160200191610587565b820191906000526020600020905b81548152906001019060200180831161056a57829003601f168201915b505050505091505090565b6000336105a0818585610d6b565b5060019392505050565b6000336105b8858285610d78565b6105c3858585610dd8565b506001949350505050565b6000908152600080516020611e67833981519152602052604090206001015490565b6105f9826105ce565b61060281610e37565b61060c8383610e41565b50505050565b600080547f0f070392f17d5f958cc1ac31867dabecfc5c9758b4a419a200803226d7155d00546106429190611ca6565b905090565b6000610642610ee6565b6001600160a01b038116331461067a5760405163334bd91960e11b815260040160405180910390fd5b6106848282610ef0565b505050565b600080516020611ea78339815191526106a181610e37565b6106a9610f6c565b50565b7f9f2df0fed2c77648de5860a4cc508cd0818c85b8b8a1ab4ceeef8d981c8956a66106d681610e37565b6106848383610fcc565b806000808282546106f19190611cb9565b909155506106a990503382611002565b600080600080516020611e278339815191525b6001600160a01b0390931660009081526020939093525050604090205490565b6001600160a01b038216331461074f5761074f823383610d78565b806000808282546107609190611cb9565b9091555061077090508282611002565b5050565b33610794600080516020611e07833981519152546001600160a01b031690565b6001600160a01b0316816001600160a01b0316146107d45760405162d1953b60e31b81526001600160a01b03821660048201526024015b60405180910390fd5b816001600160a01b03163b60000361080a576040516361798f2f60e11b81526001600160a01b03831660048201526024016107cb565b61077082611038565b60006104e382611099565b7ff0c57e16840df040f15088dc2f81fe391c3923bec73e23a9662efc9c229c6a008054600160401b810460ff16159067ffffffffffffffff166000811580156108645750825b905060008267ffffffffffffffff1660011480156108815750303b155b90508115801561088f575080155b156108ad5760405163f92ee8a960e01b815260040160405180910390fd5b845467ffffffffffffffff1916600117855583156108d757845460ff60401b1916600160401b1785555b6109176040518060400160405280600381526020016245564f60e81b8152506040518060400160405280600381526020016245564f60e81b8152506110c2565b61091f6110d4565b6109346b01f04ef12cb04cf1580000006110de565b61093c6110ef565b6109446110d4565b6109686040518060400160405280600381526020016245564f60e81b8152506110ff565b61098573204fc7955f816352afde77d84e4e8719d2c28a0a61112a565b610990600033610e41565b506109a9600080516020611ea783398151915233610e41565b506109d47f9f2df0fed2c77648de5860a4cc508cd0818c85b8b8a1ab4ceeef8d981c8956a633610e41565b508315610a1b57845460ff60401b19168555604051600181527fc7f505b2f371ae2175ee4913f4499e1f2633a7b5936321eed1cdaeb6115181d29060200160405180910390a15b5050505050565b600080516020611ea7833981519152610a3a81610e37565b6106a961113b565b60006060808280808381600080516020611e478339815191528054909150158015610a6f57506001810154155b610ab35760405162461bcd60e51b81526020600482015260156024820152741152540dcc4c8e88155b9a5b9a5d1a585b1a5e9959605a1b60448201526064016107cb565b610abb611184565b610ac36111c3565b60408051600080825260208201909252600f60f81b9c939b5091995046985030975095509350915050565b600080516020611e07833981519152805460009190600160a01b900460ff16610b18576000610b21565b638fb3603760e01b5b91505090565b6000918252600080516020611e67833981519152602090815260408084206001600160a01b0393909316845291905290205460ff1690565b7f52c63247e1f47db19d5ce0460030c497f067ca4cebf71ba98eeadabe20bace048054606091600080516020611e278339815191529161050e90611c56565b6000336105a0818585610dd8565b83421115610bd05760405163313c898160e11b8152600481018590526024016107cb565b60007f6e71edae12b1b97f4d1f60370fef10105fa2faae0126114a169c64845d6126c9888888610c3c8c6001600160a01b031660009081527f5ab42ced628888259c08ac98db1eb0cf702fc1501344311d8b100cd1bfe4bb006020526040902080546001810190915590565b6040805160208101969096526001600160a01b0394851690860152929091166060840152608083015260a082015260c0810186905260e0016040516020818303038152906040528051906020012090506000610c97826111db565b90506000610ca782878787611208565b9050896001600160a01b0316816001600160a01b031614610cee576040516325c0072360e11b81526001600160a01b0380831660048301528b1660248201526044016107cb565b610cf98a8a8a610d6b565b50505050505050505050565b610d0e826105ce565b610d1781610e37565b61060c8383610ef0565b6001600160a01b0391821660009081527f52c63247e1f47db19d5ce0460030c497f067ca4cebf71ba98eeadabe20bace016020908152604080832093909416825291909152205490565b6106848383836001611236565b6000610d848484610d21565b9050600019811461060c5781811015610dc957604051637dc7a0d960e11b81526001600160a01b038416600482015260248101829052604481018390526064016107cb565b61060c84848484036000611236565b6001600160a01b038316610e0257604051634b637e8f60e11b8152600060048201526024016107cb565b6001600160a01b038216610e2c5760405163ec442f0560e01b8152600060048201526024016107cb565b61068483838361131d565b6106a98133611328565b6000600080516020611e67833981519152610e5c8484610b27565b610edc576000848152602082815260408083206001600160a01b03871684529091529020805460ff19166001179055610e923390565b6001600160a01b0316836001600160a01b0316857f2f8788117e7eff1d82e926ec794901d17c78024a50270940304540a733656f0d60405160405180910390a460019150506104e3565b60009150506104e3565b6000610642611361565b6000600080516020611e67833981519152610f0b8484610b27565b15610edc576000848152602082815260408083206001600160a01b0387168085529252808320805460ff1916905551339287917ff6391f5c32d9c69d2a47ea670b442974b53935d1edc7fd64eb21e047a839171b9190a460019150506104e3565b610f746113d5565b600080516020611e87833981519152805460ff191681557f5db9ee0a495bf2e6ff9c91a7834c1ba4fdd244a5e8aa4e537bd38aeae4b073aa335b6040516001600160a01b03909116815260200160405180910390a150565b6001600160a01b038216610ff65760405163ec442f0560e01b8152600060048201526024016107cb565b6107706000838361131d565b6001600160a01b03821661102c57604051634b637e8f60e11b8152600060048201526024016107cb565b6107708260008361131d565b600080516020611e0783398151915280546001600160a01b0383166001600160a01b03199091168117825560408051918252517f2f658b440c35314f52658ea8a740e05b284cdc84dc9ae01e891f21b8933e7cad9181900360200190a15050565b6000807f5ab42ced628888259c08ac98db1eb0cf702fc1501344311d8b100cd1bfe4bb00610714565b6110ca611405565b610770828261144e565b6110dc611405565b565b6110e6611405565b6106a98161149f565b6110f7611405565b6110dc6114f0565b611107611405565b6106a981604051806040016040528060018152602001603160f81b815250611511565b611132611405565b6106a981611572565b611143611583565b600080516020611e87833981519152805460ff191660011781557f62e78cea01bee320cd4e420270b5ea74000d11b0c9f74754ebdbfc544b05a25833610fae565b7fa16a46d94261c7517cc8ff89f61c0ce93598e3c849801011dee649a6a557d1028054606091600080516020611e478339815191529161050e90611c56565b60606000600080516020611e478339815191526104fd565b60006104e36111e8610ee6565b8360405161190160f01b8152600281019290925260228201526042902090565b60008060008061121a888888886115b4565b92509250925061122a8282611683565b50909695505050505050565b600080516020611e278339815191526001600160a01b03851661126f5760405163e602df0560e01b8152600060048201526024016107cb565b6001600160a01b03841661129957604051634a1406b160e11b8152600060048201526024016107cb565b6001600160a01b03808616600090815260018301602090815260408083209388168352929052208390558115610a1b57836001600160a01b0316856001600160a01b03167f8c5be1e5ebec7d5bd14f71427d1e84f3dd0314c0f7b2291e5b200ac8c7c3b9258560405161130e91815260200190565b60405180910390a35050505050565b61068483838361173c565b6113328282610b27565b6107705760405163e2517d3f60e01b81526001600160a01b0382166004820152602481018390526044016107cb565b60007f8b73c3c69bb8fe3d512ecc4cf759cc79239f7b179b0ffacaa9a75d522b39400f61138c61174f565b6113946117b9565b60408051602081019490945283019190915260608201524660808201523060a082015260c00160405160208183030381529060405280519060200120905090565b600080516020611e878339815191525460ff166110dc57604051638dfc202b60e01b815260040160405180910390fd5b7ff0c57e16840df040f15088dc2f81fe391c3923bec73e23a9662efc9c229c6a0054600160401b900460ff166110dc57604051631afcd79f60e31b815260040160405180910390fd5b611456611405565b600080516020611e278339815191527f52c63247e1f47db19d5ce0460030c497f067ca4cebf71ba98eeadabe20bace036114908482611d30565b506004810161060c8382611d30565b6114a7611405565b7f0f070392f17d5f958cc1ac31867dabecfc5c9758b4a419a200803226d7155d0060008290036114ed5760405163392e1e2760e01b8152600060048201526024016107cb565b55565b6114f8611405565b600080516020611e87833981519152805460ff19169055565b611519611405565b600080516020611e478339815191527fa16a46d94261c7517cc8ff89f61c0ce93598e3c849801011dee649a6a557d1026115538482611d30565b50600381016115628382611d30565b5060008082556001909101555050565b61157a611405565b6106a981611038565b600080516020611e878339815191525460ff16156110dc5760405163d93c066560e01b815260040160405180910390fd5b600080807f7fffffffffffffffffffffffffffffff5d576e7357a4501ddfe92f46681b20a08411156115ef5750600091506003905082611679565b604080516000808252602082018084528a905260ff891692820192909252606081018790526080810186905260019060a0016020604051602081039080840390855afa158015611643573d6000803e3d6000fd5b5050604051601f1901519150506001600160a01b03811661166f57506000925060019150829050611679565b9250600091508190505b9450945094915050565b600082600381111561169757611697611df0565b036116a0575050565b60018260038111156116b4576116b4611df0565b036116d25760405163f645eedf60e01b815260040160405180910390fd5b60028260038111156116e6576116e6611df0565b036117075760405163fce698f760e01b8152600481018290526024016107cb565b600382600381111561171b5761171b611df0565b03610770576040516335e2f38360e21b8152600481018290526024016107cb565b611744611583565b6106848383836117fd565b6000600080516020611e4783398151915281611769611184565b80519091501561178157805160209091012092915050565b81548015611790579392505050565b7fc5d2460186f7233c927e7db2dcc703c0e500b653ca82273b7bfad8045d85a470935050505090565b6000600080516020611e47833981519152816117d36111c3565b8051909150156117eb57805160209091012092915050565b60018201548015611790579392505050565b611808838383611879565b6001600160a01b038316610684576000611820610612565b9050600061184c7f52c63247e1f47db19d5ce0460030c497f067ca4cebf71ba98eeadabe20bace025490565b905081811115610a1b5760405163279e7e1560e21b815260048101829052602481018390526044016107cb565b600080516020611e278339815191526001600160a01b0384166118b557818160020160008282546118aa9190611cb9565b909155506119279050565b6001600160a01b038416600090815260208290526040902054828110156119085760405163391434e360e21b81526001600160a01b038616600482015260248101829052604481018490526064016107cb565b6001600160a01b03851660009081526020839052604090209083900390555b6001600160a01b038316611945576002810180548390039055611964565b6001600160a01b03831660009081526020829052604090208054830190555b826001600160a01b0316846001600160a01b03167fddf252ad1be2c89b69c2b068fc378daa952ba7f163c4a11628f55a4df523b3ef846040516119a991815260200190565b60405180910390a350505050565b6000602082840312156119c957600080fd5b81356001600160e01b0319811681146119e157600080fd5b9392505050565b6000815180845260005b81811015611a0e576020818501810151868301820152016119f2565b506000602082860101526020601f19601f83011685010191505092915050565b6020815260006119e160208301846119e8565b80356001600160a01b0381168114611a5857600080fd5b919050565b60008060408385031215611a7057600080fd5b611a7983611a41565b946020939093013593505050565b600080600060608486031215611a9c57600080fd5b611aa584611a41565b9250611ab360208501611a41565b9150604084013590509250925092565b600060208284031215611ad557600080fd5b5035919050565b60008060408385031215611aef57600080fd5b82359150611aff60208401611a41565b90509250929050565b600060208284031215611b1a57600080fd5b6119e182611a41565b60ff60f81b881681526000602060e081840152611b4360e084018a6119e8565b8381036040850152611b55818a6119e8565b606085018990526001600160a01b038816608086015260a0850187905284810360c0860152855180825283870192509083019060005b81811015611ba757835183529284019291840191600101611b8b565b50909c9b505050505050505050505050565b600080600080600080600060e0888a031215611bd457600080fd5b611bdd88611a41565b9650611beb60208901611a41565b95506040880135945060608801359350608088013560ff81168114611c0f57600080fd5b9699959850939692959460a0840135945060c09093013592915050565b60008060408385031215611c3f57600080fd5b611c4883611a41565b9150611aff60208401611a41565b600181811c90821680611c6a57607f821691505b602082108103611c8a57634e487b7160e01b600052602260045260246000fd5b50919050565b634e487b7160e01b600052601160045260246000fd5b818103818111156104e3576104e3611c90565b808201808211156104e3576104e3611c90565b634e487b7160e01b600052604160045260246000fd5b601f82111561068457600081815260208120601f850160051c81016020861015611d095750805b601f850160051c820191505b81811015611d2857828155600101611d15565b505050505050565b815167ffffffffffffffff811115611d4a57611d4a611ccc565b611d5e81611d588454611c56565b84611ce2565b602080601f831160018114611d935760008415611d7b5750858301515b600019600386901b1c1916600185901b178555611d28565b600085815260208120601f198616915b82811015611dc257888601518255948401946001909101908401611da3565b5085821015611de05787850151600019600388901b60f8161c191681555b5050505050600190811b01905550565b634e487b7160e01b600052602160045260246000fdfef3177357ab46d8af007ab3fdb9af81da189e1068fefdc0073dca88a2cab40a0052c63247e1f47db19d5ce0460030c497f067ca4cebf71ba98eeadabe20bace00a16a46d94261c7517cc8ff89f61c0ce93598e3c849801011dee649a6a557d10002dd7bc7dec4dceedda775e58dd541e08a116c6c53815c0bd028192f7b626800cd5ed15c6e187e77e9aee88184c21f4f2182ab5827cb3b7e07fbedcd63f03300a49807205ce4d355092ef5a8a18f56e8913cf4a201fbe287825b095693c21775a264697066735822122034d9281272b68fe9a04064b67b98f23682dc133c3faa91fc616506e6058aa1f164736f6c63430008140033",
  "linkReferences": {},
  "deployedLinkReferences": {}
}