{
  "_format": "hh-sol-artifact-1",
  "contractName": "Evo",
  "sourceName": "contracts/ERC721/Evo/Evo.sol",
  "abi": [
    {
      "inputs": [],
      "stateMutability": "nonpayable",
      "type": "constructor"
    },
    {
      "inputs": [
        {
          "internalType": "address",
          "name": "authority",
          "type": "address"
        }
      ],
      "name": "AccessManagedInvalidAuthority",
      "type": "error"
    },
    {
      "inputs": [
        {
          "internalType": "address",
          "name": "caller",
          "type": "address"
        },
        {
          "internalType": "uint32",
          "name": "delay",
          "type": "uint32"
        }
      ],
      "name": "AccessManagedRequiredDelay",
      "type": "error"
    },
    {
      "inputs": [
        {
          "internalType": "address",
          "name": "caller",
          "type": "address"
        }
      ],
      "name": "AccessManagedUnauthorized",
      "type": "error"
    },
    {
      "inputs": [
        {
          "internalType": "address",
          "name": "target",
          "type": "address"
        }
      ],
      "name": "AddressEmptyCode",
      "type": "error"
    },
    {
      "inputs": [
        {
          "internalType": "address",
          "name": "implementation",
          "type": "address"
        }
      ],
      "name": "ERC1967InvalidImplementation",
      "type": "error"
    },
    {
      "inputs": [],
      "name": "ERC1967NonPayable",
      "type": "error"
    },
    {
      "inputs": [
        {
          "internalType": "uint256",
          "name": "numerator",
          "type": "uint256"
        },
        {
          "internalType": "uint256",
          "name": "denominator",
          "type": "uint256"
        }
      ],
      "name": "ERC2981InvalidDefaultRoyalty",
      "type": "error"
    },
    {
      "inputs": [
        {
          "internalType": "address",
          "name": "receiver",
          "type": "address"
        }
      ],
      "name": "ERC2981InvalidDefaultRoyaltyReceiver",
      "type": "error"
    },
    {
      "inputs": [
        {
          "internalType": "uint256",
          "name": "tokenId",
          "type": "uint256"
        },
        {
          "internalType": "uint256",
          "name": "numerator",
          "type": "uint256"
        },
        {
          "internalType": "uint256",
          "name": "denominator",
          "type": "uint256"
        }
      ],
      "name": "ERC2981InvalidTokenRoyalty",
      "type": "error"
    },
    {
      "inputs": [
        {
          "internalType": "uint256",
          "name": "tokenId",
          "type": "uint256"
        },
        {
          "internalType": "address",
          "name": "receiver",
          "type": "address"
        }
      ],
      "name": "ERC2981InvalidTokenRoyaltyReceiver",
      "type": "error"
    },
    {
      "inputs": [],
      "name": "ERC721EnumerableForbiddenBatchMint",
      "type": "error"
    },
    {
      "inputs": [
        {
          "internalType": "address",
          "name": "sender",
          "type": "address"
        },
        {
          "internalType": "uint256",
          "name": "tokenId",
          "type": "uint256"
        },
        {
          "internalType": "address",
          "name": "owner",
          "type": "address"
        }
      ],
      "name": "ERC721IncorrectOwner",
      "type": "error"
    },
    {
      "inputs": [
        {
          "internalType": "address",
          "name": "operator",
          "type": "address"
        },
        {
          "internalType": "uint256",
          "name": "tokenId",
          "type": "uint256"
        }
      ],
      "name": "ERC721InsufficientApproval",
      "type": "error"
    },
    {
      "inputs": [
        {
          "internalType": "address",
          "name": "approver",
          "type": "address"
        }
      ],
      "name": "ERC721InvalidApprover",
      "type": "error"
    },
    {
      "inputs": [
        {
          "internalType": "address",
          "name": "operator",
          "type": "address"
        }
      ],
      "name": "ERC721InvalidOperator",
      "type": "error"
    },
    {
      "inputs": [
        {
          "internalType": "address",
          "name": "owner",
          "type": "address"
        }
      ],
      "name": "ERC721InvalidOwner",
      "type": "error"
    },
    {
      "inputs": [
        {
          "internalType": "address",
          "name": "receiver",
          "type": "address"
        }
      ],
      "name": "ERC721InvalidReceiver",
      "type": "error"
    },
    {
      "inputs": [
        {
          "internalType": "address",
          "name": "sender",
          "type": "address"
        }
      ],
      "name": "ERC721InvalidSender",
      "type": "error"
    },
    {
      "inputs": [
        {
          "internalType": "uint256",
          "name": "tokenId",
          "type": "uint256"
        }
      ],
      "name": "ERC721NonexistentToken",
      "type": "error"
    },
    {
      "inputs": [
        {
          "internalType": "address",
          "name": "owner",
          "type": "address"
        },
        {
          "internalType": "uint256",
          "name": "index",
          "type": "uint256"
        }
      ],
      "name": "ERC721OutOfBoundsIndex",
      "type": "error"
    },
    {
      "inputs": [],
      "name": "EnforcedPause",
      "type": "error"
    },
    {
      "inputs": [],
      "name": "ExpectedPause",
      "type": "error"
    },
    {
      "inputs": [],
      "name": "FailedInnerCall",
      "type": "error"
    },
    {
      "inputs": [],
      "name": "InvalidInitialization",
      "type": "error"
    },
    {
      "inputs": [
        {
          "internalType": "uint256",
          "name": "tokenId",
          "type": "uint256"
        },
        {
          "internalType": "uint256",
          "name": "nextTokenId",
          "type": "uint256"
        }
      ],
      "name": "InvalidTokenId",
      "type": "error"
    },
    {
      "inputs": [],
      "name": "NotInitializing",
      "type": "error"
    },
    {
      "inputs": [],
      "name": "UUPSUnauthorizedCallContext",
      "type": "error"
    },
    {
      "inputs": [
        {
          "internalType": "bytes32",
          "name": "slot",
          "type": "bytes32"
        }
      ],
      "name": "UUPSUnsupportedProxiableUUID",
      "type": "error"
    },
    {
      "anonymous": false,
      "inputs": [
        {
          "indexed": true,
          "internalType": "address",
          "name": "owner",
          "type": "address"
        },
        {
          "indexed": true,
          "internalType": "address",
          "name": "approved",
          "type": "address"
        },
        {
          "indexed": true,
          "internalType": "uint256",
          "name": "tokenId",
          "type": "uint256"
        }
      ],
      "name": "Approval",
      "type": "event"
    },
    {
      "anonymous": false,
      "inputs": [
        {
          "indexed": true,
          "internalType": "address",
          "name": "owner",
          "type": "address"
        },
        {
          "indexed": true,
          "internalType": "address",
          "name": "operator",
          "type": "address"
        },
        {
          "indexed": false,
          "internalType": "bool",
          "name": "approved",
          "type": "bool"
        }
      ],
      "name": "ApprovalForAll",
      "type": "event"
    },
    {
      "anonymous": false,
      "inputs": [
        {
          "indexed": false,
          "internalType": "address",
          "name": "authority",
          "type": "address"
        }
      ],
      "name": "AuthorityUpdated",
      "type": "event"
    },
    {
      "anonymous": false,
      "inputs": [
        {
          "indexed": false,
          "internalType": "uint256",
          "name": "_fromTokenId",
          "type": "uint256"
        },
        {
          "indexed": false,
          "internalType": "uint256",
          "name": "_toTokenId",
          "type": "uint256"
        }
      ],
      "name": "BatchMetadataUpdate",
      "type": "event"
    },
    {
      "anonymous": false,
      "inputs": [
        {
          "indexed": false,
          "internalType": "uint64",
          "name": "version",
          "type": "uint64"
        }
      ],
      "name": "Initialized",
      "type": "event"
    },
    {
      "anonymous": false,
      "inputs": [
        {
          "indexed": false,
          "internalType": "uint256",
          "name": "_tokenId",
          "type": "uint256"
        }
      ],
      "name": "MetadataUpdate",
      "type": "event"
    },
    {
      "anonymous": false,
      "inputs": [
        {
          "indexed": false,
          "internalType": "address",
          "name": "account",
          "type": "address"
        }
      ],
      "name": "Paused",
      "type": "event"
    },
    {
      "anonymous": false,
      "inputs": [
        {
          "indexed": true,
          "internalType": "address",
          "name": "from",
          "type": "address"
        },
        {
          "indexed": true,
          "internalType": "address",
          "name": "to",
          "type": "address"
        },
        {
          "indexed": true,
          "internalType": "uint256",
          "name": "tokenId",
          "type": "uint256"
        }
      ],
      "name": "Transfer",
      "type": "event"
    },
    {
      "anonymous": false,
      "inputs": [
        {
          "indexed": false,
          "internalType": "address",
          "name": "account",
          "type": "address"
        }
      ],
      "name": "Unpaused",
      "type": "event"
    },
    {
      "anonymous": false,
      "inputs": [
        {
          "indexed": true,
          "internalType": "address",
          "name": "implementation",
          "type": "address"
        }
      ],
      "name": "Upgraded",
      "type": "event"
    },
    {
      "inputs": [],
      "name": "UPGRADE_INTERFACE_VERSION",
      "outputs": [
        {
          "internalType": "string",
          "name": "",
          "type": "string"
        }
      ],
      "stateMutability": "view",
      "type": "function"
    },
    {
      "inputs": [
        {
          "internalType": "address[]",
          "name": "from",
          "type": "address[]"
        },
        {
          "internalType": "address[]",
          "name": "to",
          "type": "address[]"
        },
        {
          "internalType": "uint256[]",
          "name": "tokenIds",
          "type": "uint256[]"
        }
      ],
      "name": "adminTransfer",
      "outputs": [],
      "stateMutability": "nonpayable",
      "type": "function"
    },
    {
      "inputs": [
        {
          "internalType": "address",
          "name": "to",
          "type": "address"
        },
        {
          "internalType": "uint256",
          "name": "tokenId",
          "type": "uint256"
        }
      ],
      "name": "approve",
      "outputs": [],
      "stateMutability": "nonpayable",
      "type": "function"
    },
    {
      "inputs": [],
      "name": "authority",
      "outputs": [
        {
          "internalType": "address",
          "name": "",
          "type": "address"
        }
      ],
      "stateMutability": "view",
      "type": "function"
    },
    {
      "inputs": [
        {
          "internalType": "address",
          "name": "owner",
          "type": "address"
        }
      ],
      "name": "balanceOf",
      "outputs": [
        {
          "internalType": "uint256",
          "name": "",
          "type": "uint256"
        }
      ],
      "stateMutability": "view",
      "type": "function"
    },
    {
      "inputs": [
        {
          "internalType": "address[]",
          "name": "to",
          "type": "address[]"
        }
      ],
      "name": "batchMintNew",
      "outputs": [],
      "stateMutability": "nonpayable",
      "type": "function"
    },
    {
      "inputs": [
        {
          "internalType": "address[]",
          "name": "to",
          "type": "address[]"
        },
        {
          "internalType": "uint256[]",
          "name": "tokenIds",
          "type": "uint256[]"
        }
      ],
      "name": "batchMintTo",
      "outputs": [],
      "stateMutability": "nonpayable",
      "type": "function"
    },
    {
      "inputs": [
        {
          "internalType": "uint256",
          "name": "tokenId",
          "type": "uint256"
        }
      ],
      "name": "burn",
      "outputs": [],
      "stateMutability": "nonpayable",
      "type": "function"
    },
    {
      "inputs": [],
      "name": "contractURI",
      "outputs": [
        {
          "internalType": "string",
          "name": "",
          "type": "string"
        }
      ],
      "stateMutability": "pure",
      "type": "function"
    },
    {
      "inputs": [
        {
          "internalType": "uint256",
          "name": "tokenId",
          "type": "uint256"
        }
      ],
      "name": "getApproved",
      "outputs": [
        {
          "internalType": "address",
          "name": "",
          "type": "address"
        }
      ],
      "stateMutability": "view",
      "type": "function"
    },
    {
      "inputs": [],
      "name": "initialize",
      "outputs": [],
      "stateMutability": "nonpayable",
      "type": "function"
    },
    {
      "inputs": [
        {
          "internalType": "address",
          "name": "owner",
          "type": "address"
        },
        {
          "internalType": "address",
          "name": "operator",
          "type": "address"
        }
      ],
      "name": "isApprovedForAll",
      "outputs": [
        {
          "internalType": "bool",
          "name": "",
          "type": "bool"
        }
      ],
      "stateMutability": "view",
      "type": "function"
    },
    {
      "inputs": [],
      "name": "isConsumingScheduledOp",
      "outputs": [
        {
          "internalType": "bytes4",
          "name": "",
          "type": "bytes4"
        }
      ],
      "stateMutability": "view",
      "type": "function"
    },
    {
      "inputs": [
        {
          "internalType": "address",
          "name": "to",
          "type": "address"
        }
      ],
      "name": "mintNew",
      "outputs": [],
      "stateMutability": "nonpayable",
      "type": "function"
    },
    {
      "inputs": [
        {
          "internalType": "address",
          "name": "to",
          "type": "address"
        },
        {
          "internalType": "uint256",
          "name": "tokenId",
          "type": "uint256"
        }
      ],
      "name": "mintTo",
      "outputs": [],
      "stateMutability": "nonpayable",
      "type": "function"
    },
    {
      "inputs": [],
      "name": "name",
      "outputs": [
        {
          "internalType": "string",
          "name": "",
          "type": "string"
        }
      ],
      "stateMutability": "view",
      "type": "function"
    },
    {
      "inputs": [
        {
          "internalType": "uint256",
          "name": "tokenId",
          "type": "uint256"
        }
      ],
      "name": "ownerOf",
      "outputs": [
        {
          "internalType": "address",
          "name": "",
          "type": "address"
        }
      ],
      "stateMutability": "view",
      "type": "function"
    },
    {
      "inputs": [],
      "name": "pause",
      "outputs": [],
      "stateMutability": "nonpayable",
      "type": "function"
    },
    {
      "inputs": [],
      "name": "paused",
      "outputs": [
        {
          "internalType": "bool",
          "name": "",
          "type": "bool"
        }
      ],
      "stateMutability": "view",
      "type": "function"
    },
    {
      "inputs": [],
      "name": "proxiableUUID",
      "outputs": [
        {
          "internalType": "bytes32",
          "name": "",
          "type": "bytes32"
        }
      ],
      "stateMutability": "view",
      "type": "function"
    },
    {
      "inputs": [
        {
          "internalType": "uint256",
          "name": "_fromTokenId",
          "type": "uint256"
        },
        {
          "internalType": "uint256",
          "name": "_toTokenId",
          "type": "uint256"
        }
      ],
      "name": "requestBatchMetadataUpdate",
      "outputs": [],
      "stateMutability": "nonpayable",
      "type": "function"
    },
    {
      "inputs": [
        {
          "internalType": "uint256",
          "name": "_tokenId",
          "type": "uint256"
        }
      ],
      "name": "requestMetadataUpdate",
      "outputs": [],
      "stateMutability": "nonpayable",
      "type": "function"
    },
    {
      "inputs": [
        {
          "internalType": "uint256",
          "name": "tokenId",
          "type": "uint256"
        },
        {
          "internalType": "uint256",
          "name": "salePrice",
          "type": "uint256"
        }
      ],
      "name": "royaltyInfo",
      "outputs": [
        {
          "internalType": "address",
          "name": "",
          "type": "address"
        },
        {
          "internalType": "uint256",
          "name": "",
          "type": "uint256"
        }
      ],
      "stateMutability": "view",
      "type": "function"
    },
    {
      "inputs": [
        {
          "internalType": "address",
          "name": "from",
          "type": "address"
        },
        {
          "internalType": "address",
          "name": "to",
          "type": "address"
        },
        {
          "internalType": "uint256",
          "name": "tokenId",
          "type": "uint256"
        }
      ],
      "name": "safeTransferFrom",
      "outputs": [],
      "stateMutability": "nonpayable",
      "type": "function"
    },
    {
      "inputs": [
        {
          "internalType": "address",
          "name": "from",
          "type": "address"
        },
        {
          "internalType": "address",
          "name": "to",
          "type": "address"
        },
        {
          "internalType": "uint256",
          "name": "tokenId",
          "type": "uint256"
        },
        {
          "internalType": "bytes",
          "name": "data",
          "type": "bytes"
        }
      ],
      "name": "safeTransferFrom",
      "outputs": [],
      "stateMutability": "nonpayable",
      "type": "function"
    },
    {
      "inputs": [
        {
          "internalType": "address",
          "name": "operator",
          "type": "address"
        },
        {
          "internalType": "bool",
          "name": "approved",
          "type": "bool"
        }
      ],
      "name": "setApprovalForAll",
      "outputs": [],
      "stateMutability": "nonpayable",
      "type": "function"
    },
    {
      "inputs": [
        {
          "internalType": "address",
          "name": "newAuthority",
          "type": "address"
        }
      ],
      "name": "setAuthority",
      "outputs": [],
      "stateMutability": "nonpayable",
      "type": "function"
    },
    {
      "inputs": [
        {
          "internalType": "bytes4",
          "name": "interfaceId",
          "type": "bytes4"
        }
      ],
      "name": "supportsInterface",
      "outputs": [
        {
          "internalType": "bool",
          "name": "",
          "type": "bool"
        }
      ],
      "stateMutability": "view",
      "type": "function"
    },
    {
      "inputs": [],
      "name": "symbol",
      "outputs": [
        {
          "internalType": "string",
          "name": "",
          "type": "string"
        }
      ],
      "stateMutability": "view",
      "type": "function"
    },
    {
      "inputs": [
        {
          "internalType": "uint256",
          "name": "index",
          "type": "uint256"
        }
      ],
      "name": "tokenByIndex",
      "outputs": [
        {
          "internalType": "uint256",
          "name": "",
          "type": "uint256"
        }
      ],
      "stateMutability": "view",
      "type": "function"
    },
    {
      "inputs": [
        {
          "internalType": "address",
          "name": "owner",
          "type": "address"
        },
        {
          "internalType": "uint256",
          "name": "index",
          "type": "uint256"
        }
      ],
      "name": "tokenOfOwnerByIndex",
      "outputs": [
        {
          "internalType": "uint256",
          "name": "",
          "type": "uint256"
        }
      ],
      "stateMutability": "view",
      "type": "function"
    },
    {
      "inputs": [
        {
          "internalType": "uint256",
          "name": "tokenId",
          "type": "uint256"
        }
      ],
      "name": "tokenURI",
      "outputs": [
        {
          "internalType": "string",
          "name": "",
          "type": "string"
        }
      ],
      "stateMutability": "view",
      "type": "function"
    },
    {
      "inputs": [],
      "name": "totalSupply",
      "outputs": [
        {
          "internalType": "uint256",
          "name": "",
          "type": "uint256"
        }
      ],
      "stateMutability": "view",
      "type": "function"
    },
    {
      "inputs": [
        {
          "internalType": "address",
          "name": "from",
          "type": "address"
        },
        {
          "internalType": "address",
          "name": "to",
          "type": "address"
        },
        {
          "internalType": "uint256",
          "name": "tokenId",
          "type": "uint256"
        }
      ],
      "name": "transferFrom",
      "outputs": [],
      "stateMutability": "nonpayable",
      "type": "function"
    },
    {
      "inputs": [],
      "name": "unpause",
      "outputs": [],
      "stateMutability": "nonpayable",
      "type": "function"
    },
    {
      "inputs": [
        {
          "internalType": "address",
          "name": "newImplementation",
          "type": "address"
        },
        {
          "internalType": "bytes",
          "name": "data",
          "type": "bytes"
        }
      ],
      "name": "upgradeToAndCall",
      "outputs": [],
      "stateMutability": "payable",
      "type": "function"
    }
  ],
  "bytecode": "0x60a0604052306080523480156200001557600080fd5b506200002062000026565b620000da565b7ff0c57e16840df040f15088dc2f81fe391c3923bec73e23a9662efc9c229c6a00805468010000000000000000900460ff1615620000775760405163f92ee8a960e01b815260040160405180910390fd5b80546001600160401b0390811614620000d75780546001600160401b0319166001600160401b0390811782556040519081527fc7f505b2f371ae2175ee4913f4499e1f2633a7b5936321eed1cdaeb6115181d29060200160405180910390a15b50565b608051612ee46200010460003960008181611378015281816113a101526114e60152612ee46000f3fe60806040526004361061020f5760003560e01c80635c975abb11610118578063a22cb465116100a0578063c87b56dd1161006f578063c87b56dd14610625578063ca61f31314610645578063cfc570b014610665578063e8a3d48514610685578063e985e9c51461069a57600080fd5b8063a22cb4651461059f578063ad3cb1cc146105bf578063b88d4fde146105f0578063bf7e214f1461061057600080fd5b80637fc06c07116100e75780637fc06c07146105125780638129fc1c146105325780638456cb59146105475780638fb360371461055c57806395d89b411461058a57600080fd5b80635c975abb1461048d5780636352211e146104b257806370a08231146104d25780637a9e5e4b146104f257600080fd5b80633f4ba83a1161019b5780634b9ddedc1161016a5780634b9ddedc146104055780634f1ef286146104255780634f6ccce71461043857806352d1902d14610458578063589376fb1461046d57600080fd5b80633f4ba83a1461039057806342842e0e146103a557806342966c68146103c5578063449a52f8146103e557600080fd5b8063095ea7b3116101e2578063095ea7b3146102c557806318160ddd146102e557806323b872dd146103115780632a55205a146103315780632f745c591461037057600080fd5b806301ffc9a7146102145780630379b1d01461024957806306fdde031461026b578063081812fc1461028d575b600080fd5b34801561022057600080fd5b5061023461022f366004612557565b6106ba565b60405190151581526020015b60405180910390f35b34801561025557600080fd5b506102696102643660046125b9565b6106cb565b005b34801561027757600080fd5b506102806107ae565b6040516102409190612675565b34801561029957600080fd5b506102ad6102a8366004612688565b610852565b6040516001600160a01b039091168152602001610240565b3480156102d157600080fd5b506102696102e03660046126bd565b610867565b3480156102f157600080fd5b50600080516020612e48833981519152545b604051908152602001610240565b34801561031d57600080fd5b5061026961032c3660046126e7565b610876565b34801561033d57600080fd5b5061035161034c366004612723565b610901565b604080516001600160a01b039093168352602083019190915201610240565b34801561037c57600080fd5b5061030361038b3660046126bd565b6109f1565b34801561039c57600080fd5b50610269610a65565b3480156103b157600080fd5b506102696103c03660046126e7565b610a78565b3480156103d157600080fd5b506102696103e0366004612688565b610a98565b3480156103f157600080fd5b506102696104003660046126bd565b610aa4565b34801561041157600080fd5b50610269610420366004612723565b610ae7565b6102696104333660046127e8565b610b25565b34801561044457600080fd5b50610303610453366004612688565b610b40565b34801561046457600080fd5b50610303610bb8565b34801561047957600080fd5b50610269610488366004612836565b610bd5565b34801561049957600080fd5b50600080516020612e8f8339815191525460ff16610234565b3480156104be57600080fd5b506102ad6104cd366004612688565b610c41565b3480156104de57600080fd5b506103036104ed366004612878565b610c4c565b3480156104fe57600080fd5b5061026961050d366004612878565b610ca8565b34801561051e57600080fd5b5061026961052d366004612878565b610d2b565b34801561053e57600080fd5b50610269610d53565b34801561055357600080fd5b50610269610ee3565b34801561056857600080fd5b50610571610ef4565b6040516001600160e01b03199091168152602001610240565b34801561059657600080fd5b50610280610f2d565b3480156105ab57600080fd5b506102696105ba3660046128a1565b610f6c565b3480156105cb57600080fd5b50610280604051806040016040528060058152602001640352e302e360dc1b81525081565b3480156105fc57600080fd5b5061026961060b3660046128d8565b610f77565b34801561061c57600080fd5b506102ad610f8e565b34801561063157600080fd5b50610280610640366004612688565b610faa565b34801561065157600080fd5b50610269610660366004612940565b611012565b34801561067157600080fd5b50610269610680366004612688565b6110b0565b34801561069157600080fd5b506102806110e7565b3480156106a657600080fd5b506102346106b53660046129da565b611107565b60006106c582611154565b92915050565b6106d8335b60003661115f565b60005b838110156107a7576000548383838181106106f8576106f8612a0d565b905060200201351061074d5782828281811061071657610716612a0d565b9050602002013560005460405163168a450960e21b8152600401610744929190918252602082015260400190565b60405180910390fd5b61079585858381811061076257610762612a0d565b90506020020160208101906107779190612878565b84848481811061078957610789612a0d565b90506020020135611265565b8061079f81612a39565b9150506106db565b5050505050565b600080516020612de283398151915280546060919081906107ce90612a52565b80601f01602080910402602001604051908101604052809291908181526020018280546107fa90612a52565b80156108475780601f1061081c57610100808354040283529160200191610847565b820191906000526020600020905b81548152906001019060200180831161082a57829003601f168201915b505050505091505090565b600061085d8261127f565b506106c5826112b7565b6108728282336112f1565b5050565b6001600160a01b0382166108a057604051633250574960e11b815260006004820152602401610744565b60006108ad8383336112fe565b9050836001600160a01b0316816001600160a01b0316146108fb576040516364283d7b60e01b81526001600160a01b0380861660048301526024820184905282166044820152606401610744565b50505050565b60008281527fdaedc9ab023613a7caf35e703657e986ccfad7e3eb0af93a2853f8d65dd86b01602090815260408083208151808301909252546001600160a01b038116808352600160a01b9091046001600160601b03169282019290925282917fdaedc9ab023613a7caf35e703657e986ccfad7e3eb0af93a2853f8d65dd86b0091906109b757506040805180820190915281546001600160a01b0381168252600160a01b90046001600160601b031660208201525b6020810151600090612710906109d6906001600160601b031688612a8c565b6109e09190612aa3565b9151945090925050505b9250929050565b6000600080516020612dc2833981519152610a0b84610c4c565b8310610a3c5760405163295f44f760e21b81526001600160a01b038516600482015260248101849052604401610744565b6001600160a01b0384166000908152602091825260408082208583529092522054905092915050565b610a6e336106d0565b610a76611313565b565b610a9383838360405180602001604052806000815250610f77565b505050565b610872600082336112fe565b610aad336106d0565b6000548110610add5760005460405163168a450960e21b8152610744918391600401918252602082015260400190565b6108728282611265565b60408051838152602081018390527f6bd5c950a8d8df17f772f5af37cb3655737899cbf903264b9795592da439661c91015b60405180910390a15050565b610b2d61136d565b610b3682611412565b610872828261141e565b6000600080516020612dc2833981519152610b67600080516020612e488339815191525490565b8310610b905760405163295f44f760e21b81526000600482015260248101849052604401610744565b806002018381548110610ba557610ba5612a0d565b9060005260206000200154915050919050565b6000610bc26114db565b50600080516020612e2883398151915290565b610bde336106d0565b60005b81811015610a9357600080548180610bf883612a39565b919050559050610c2e848484818110610c1357610c13612a0d565b9050602002016020810190610c289190612878565b82611265565b5080610c3981612a39565b915050610be1565b60006106c58261127f565b6000600080516020612de28339815191526001600160a01b038316610c87576040516322718ad960e21b815260006004820152602401610744565b6001600160a01b039092166000908152600390920160205250604090205490565b33610cb1610f8e565b6001600160a01b0316816001600160a01b031614610cec5760405162d1953b60e31b81526001600160a01b0382166004820152602401610744565b816001600160a01b03163b600003610d22576040516361798f2f60e11b81526001600160a01b0383166004820152602401610744565b61087282611524565b610d34336106d0565b600080548180610d4383612a39565b9190505590506108728282611265565b7ff0c57e16840df040f15088dc2f81fe391c3923bec73e23a9662efc9c229c6a008054600160401b810460ff16159067ffffffffffffffff16600081158015610d995750825b905060008267ffffffffffffffff166001148015610db65750303b155b905081158015610dc4575080155b15610de25760405163f92ee8a960e01b815260040160405180910390fd5b845467ffffffffffffffff191660011785558315610e0c57845460ff60401b1916600160401b1785555b610e4c6040518060400160405280600381526020016245766f60e81b8152506040518060400160405280600381526020016245766f60e81b81525061157e565b610e54611590565b610e5c611598565b610e7973204fc7955f816352afde77d84e4e8719d2c28a0a6115a8565b610e81611590565b610e89611590565b610e91611590565b6113f560005583156107a757845460ff60401b19168555604051600181527fc7f505b2f371ae2175ee4913f4499e1f2633a7b5936321eed1cdaeb6115181d29060200160405180910390a15050505050565b610eec336106d0565b610a766115b9565b600080516020612da2833981519152805460009190600160a01b900460ff16610f1e576000610f27565b638fb3603760e01b5b91505090565b7f80bb2b638cc20bc4d0a60d66940f3ab4a00c1d7b313497ca82fb0b4ab00793018054606091600080516020612de2833981519152916107ce90612a52565b610872338383611602565b610f82848484610876565b6108fb848484846116b3565b600080516020612da2833981519152546001600160a01b031690565b6060610fb58261127f565b506000610fc06117d5565b90506000815111610fe0576040518060200160405280600081525061100b565b80610fea846117f5565b604051602001610ffb929190612ac5565b6040516020818303038152906040525b9392505050565b61101b336106d0565b60005b838110156110a75761109587878381811061103b5761103b612a0d565b90506020020160208101906110509190612878565b86868481811061106257611062612a0d565b90506020020160208101906110779190612878565b85858581811061108957611089612a0d565b90506020020135611888565b8061109f81612a39565b91505061101e565b50505050505050565b6040518181527ff8e1a15aba9398e019f0b49df1a4fde98ee17ae345cb5f6b5e2c27f5033e8ce7906020015b60405180910390a150565b6060604051806060016040528060268152602001612e0260269139905090565b6001600160a01b0391821660009081527f80bb2b638cc20bc4d0a60d66940f3ab4a00c1d7b313497ca82fb0b4ab00793056020908152604080832093909416825291909152205460ff1690565b60006106c5826118a3565b600080516020612da283398151915260008061119a61117c610f8e565b873061118c600460008a8c612af4565b61119591612b1e565b6118c8565b915091508161125d5763ffffffff81161561123a57825460ff60a01b1916600160a01b1783556111c8610f8e565b6001600160a01b03166394c7d7ee8787876040518463ffffffff1660e01b81526004016111f793929190612b4e565b600060405180830381600087803b15801561121157600080fd5b505af1158015611225573d6000803e3d6000fd5b5050845460ff60a01b191685555061125d9050565b60405162d1953b60e31b81526001600160a01b0387166004820152602401610744565b505050505050565b6108728282604051806020016040528060008152506119d4565b60008061128b836119eb565b90506001600160a01b0381166106c557604051637e27328960e01b815260048101849052602401610744565b60009081527f80bb2b638cc20bc4d0a60d66940f3ab4a00c1d7b313497ca82fb0b4ab007930460205260409020546001600160a01b031690565b610a938383836001611a25565b600061130b848484611b3b565b949350505050565b61131b611b50565b600080516020612e8f833981519152805460ff191681557f5db9ee0a495bf2e6ff9c91a7834c1ba4fdd244a5e8aa4e537bd38aeae4b073aa335b6040516001600160a01b0390911681526020016110dc565b306001600160a01b037f00000000000000000000000000000000000000000000000000000000000000001614806113f457507f00000000000000000000000000000000000000000000000000000000000000006001600160a01b03166113e8600080516020612e28833981519152546001600160a01b031690565b6001600160a01b031614155b15610a765760405163703e46dd60e11b815260040160405180910390fd5b61141b336106d0565b50565b816001600160a01b03166352d1902d6040518163ffffffff1660e01b8152600401602060405180830381865afa925050508015611478575060408051601f3d908101601f1916820190925261147591810190612b8e565b60015b6114a057604051634c9c8ce360e01b81526001600160a01b0383166004820152602401610744565b600080516020612e2883398151915281146114d157604051632a87526960e21b815260048101829052602401610744565b610a938383611b80565b306001600160a01b037f00000000000000000000000000000000000000000000000000000000000000001614610a765760405163703e46dd60e11b815260040160405180910390fd5b600080516020612da283398151915280546001600160a01b0319166001600160a01b03831690811782556040519081527f2f658b440c35314f52658ea8a740e05b284cdc84dc9ae01e891f21b8933e7cad90602001610b19565b611586611bd6565b6108728282611c1f565b610a76611bd6565b6115a0611bd6565b610a76611c50565b6115b0611bd6565b61141b81611c71565b6115c1611c82565b600080516020612e8f833981519152805460ff191660011781557f62e78cea01bee320cd4e420270b5ea74000d11b0c9f74754ebdbfc544b05a25833611355565b600080516020612de28339815191526001600160a01b03831661164357604051630b61174360e31b81526001600160a01b0384166004820152602401610744565b6001600160a01b038481166000818152600584016020908152604080832094881680845294825291829020805460ff191687151590811790915591519182527f17307eab39ab6107e8899845ad3d59bd9653f200f220920489ca2b5937696c31910160405180910390a350505050565b6001600160a01b0383163b156108fb57604051630a85bd0160e11b81526001600160a01b0384169063150b7a02906116f5903390889087908790600401612ba7565b6020604051808303816000875af1925050508015611730575060408051601f3d908101601f1916820190925261172d91810190612be4565b60015b611799573d80801561175e576040519150601f19603f3d011682016040523d82523d6000602084013e611763565b606091505b50805160000361179157604051633250574960e11b81526001600160a01b0385166004820152602401610744565b805181602001fd5b6001600160e01b03198116630a85bd0160e11b146107a757604051633250574960e11b81526001600160a01b0385166004820152602401610744565b6060604051806060016040528060278152602001612e6860279139905090565b6060600061180283611cb3565b600101905060008167ffffffffffffffff81111561182257611822612745565b6040519080825280601f01601f19166020018201604052801561184c576020820181803683370190505b5090508181016020015b600019016f181899199a1a9b1b9c1cb0b131b232b360811b600a86061a8153600a850494508461185657509392505050565b610a9383838360405180602001604052806000815250611d8b565b60006001600160e01b0319821663780e9d6360e01b14806106c557506106c582611d96565b6040516001600160a01b03848116602483015283811660448301526001600160e01b03198316606483015260009182918291829189169060840160408051601f198184030181529181526020820180516001600160e01b031663b700961360e01b179052516119379190612c01565b600060405180830381855afa9150503d8060008114611972576040519150601f19603f3d011682016040523d82523d6000602084013e611977565b606091505b509150915081156119c95760408151106119a9578080602001905181019061199f9190612c1d565b90945092506119c9565b60208151106119c957808060200190518101906119c69190612c55565b93505b505094509492505050565b6119de8383611dd6565b610a9360008484846116b3565b60009081527f80bb2b638cc20bc4d0a60d66940f3ab4a00c1d7b313497ca82fb0b4ab007930260205260409020546001600160a01b031690565b600080516020612de28339815191528180611a4857506001600160a01b03831615155b15611b0a576000611a588561127f565b90506001600160a01b03841615801590611a845750836001600160a01b0316816001600160a01b031614155b8015611a975750611a958185611107565b155b15611ac05760405163a9fbf51f60e01b81526001600160a01b0385166004820152602401610744565b8215611b085784866001600160a01b0316826001600160a01b03167f8c5be1e5ebec7d5bd14f71427d1e84f3dd0314c0f7b2291e5b200ac8c7c3b92560405160405180910390a45b505b600093845260040160205250506040902080546001600160a01b0319166001600160a01b0392909216919091179055565b6000611b45611c82565b61130b848484611e3b565b600080516020612e8f8339815191525460ff16610a7657604051638dfc202b60e01b815260040160405180910390fd5b611b8982611f34565b6040516001600160a01b038316907fbc7cd75a20ee27fd9adebab32041f755214dbc6bffa90cc0225b39da2e5c2d3b90600090a2805115611bce57610a938282611f99565b61087261200f565b7ff0c57e16840df040f15088dc2f81fe391c3923bec73e23a9662efc9c229c6a0054600160401b900460ff16610a7657604051631afcd79f60e31b815260040160405180910390fd5b611c27611bd6565b600080516020612de283398151915280611c418482612cb8565b50600181016108fb8382612cb8565b611c58611bd6565b600080516020612e8f833981519152805460ff19169055565b611c79611bd6565b61141b81611524565b600080516020612e8f8339815191525460ff1615610a765760405163d93c066560e01b815260040160405180910390fd5b60008072184f03e93ff9f4daa797ed6e38ed64bf6a1f0160401b8310611cf25772184f03e93ff9f4daa797ed6e38ed64bf6a1f0160401b830492506040015b6d04ee2d6d415b85acef81000000008310611d1e576d04ee2d6d415b85acef8100000000830492506020015b662386f26fc100008310611d3c57662386f26fc10000830492506010015b6305f5e1008310611d54576305f5e100830492506008015b6127108310611d6857612710830492506004015b60648310611d7a576064830492506002015b600a83106106c55760010192915050565b610f8284848461202e565b60006001600160e01b031982166380ac58cd60e01b1480611dc757506001600160e01b03198216635b5e139f60e01b145b806106c557506106c5826120de565b6001600160a01b038216611e0057604051633250574960e11b815260006004820152602401610744565b6000611e0e838360006112fe565b90506001600160a01b03811615610a93576040516339e3563760e11b815260006004820152602401610744565b600080611e49858585612113565b90506001600160a01b038116611ed257611ecd84600080516020612e48833981519152805460008381527f645e039705490088daad89bae25049a34f4a9072d398537b1ab2425f24cbed0360205260408120829055600182018355919091527fa42f15e5d656f8155fd7419d740a6073999f19cd6e061449ce4a257150545bf20155565b611ef5565b846001600160a01b0316816001600160a01b031614611ef557611ef5818561221d565b6001600160a01b038516611f1157611f0c846122c1565b61130b565b846001600160a01b0316816001600160a01b03161461130b5761130b8585612398565b806001600160a01b03163b600003611f6a57604051634c9c8ce360e01b81526001600160a01b0382166004820152602401610744565b600080516020612e2883398151915280546001600160a01b0319166001600160a01b0392909216919091179055565b6060600080846001600160a01b031684604051611fb69190612c01565b600060405180830381855af49150503d8060008114611ff1576040519150601f19603f3d011682016040523d82523d6000602084013e611ff6565b606091505b50915091506120068583836123f3565b95945050505050565b3415610a765760405163b398979f60e01b815260040160405180910390fd5b6001600160a01b03821661205857604051633250574960e11b815260006004820152602401610744565b6000612066838360006112fe565b90506001600160a01b03811661209257604051637e27328960e01b815260048101839052602401610744565b836001600160a01b0316816001600160a01b0316146108fb576040516364283d7b60e01b81526001600160a01b0380861660048301526024820184905282166044820152606401610744565b60006001600160e01b0319821663152a902d60e11b14806106c557506301ffc9a760e01b6001600160e01b03198316146106c5565b6000600080516020612de28339815191528161212e856119eb565b90506001600160a01b0384161561214a5761214a81858761244f565b6001600160a01b0381161561218a57612167600086600080611a25565b6001600160a01b0381166000908152600383016020526040902080546000190190555b6001600160a01b038616156121bb576001600160a01b03861660009081526003830160205260409020805460010190555b600085815260028301602052604080822080546001600160a01b0319166001600160a01b038a811691821790925591518893918516917fddf252ad1be2c89b69c2b068fc378daa952ba7f163c4a11628f55a4df523b3ef91a495945050505050565b600080516020612dc2833981519152600061223784610c4c565b600084815260018401602052604090205490915080821461228c576001600160a01b03851660009081526020848152604080832085845282528083205484845281842081905583526001860190915290208190555b50600092835260018201602090815260408085208590556001600160a01b039095168452918252838320908352905290812055565b600080516020612e4883398151915254600080516020612dc2833981519152906000906122f090600190612d78565b600084815260038401602052604081205460028501805493945090928490811061231c5761231c612a0d565b906000526020600020015490508084600201838154811061233f5761233f612a0d565b60009182526020808320909101929092558281526003860190915260408082208490558682528120556002840180548061237b5761237b612d8b565b600190038181906000526020600020016000905590555050505050565b600080516020612dc2833981519152600060016123b485610c4c565b6123be9190612d78565b6001600160a01b0390941660009081526020838152604080832087845282528083208690559482526001909301909252502055565b60608261240857612403826124b3565b61100b565b815115801561241f57506001600160a01b0384163b155b1561244857604051639996b31560e01b81526001600160a01b0385166004820152602401610744565b508061100b565b61245a8383836124dc565b610a93576001600160a01b03831661248857604051637e27328960e01b815260048101829052602401610744565b60405163177e802f60e01b81526001600160a01b038316600482015260248101829052604401610744565b8051156124c35780518082602001fd5b604051630a12f52160e11b815260040160405180910390fd5b60006001600160a01b0383161580159061130b5750826001600160a01b0316846001600160a01b0316148061251657506125168484611107565b8061130b5750826001600160a01b031661252f836112b7565b6001600160a01b031614949350505050565b6001600160e01b03198116811461141b57600080fd5b60006020828403121561256957600080fd5b813561100b81612541565b60008083601f84011261258657600080fd5b50813567ffffffffffffffff81111561259e57600080fd5b6020830191508360208260051b85010111156109ea57600080fd5b600080600080604085870312156125cf57600080fd5b843567ffffffffffffffff808211156125e757600080fd5b6125f388838901612574565b9096509450602087013591508082111561260c57600080fd5b5061261987828801612574565b95989497509550505050565b60005b83811015612640578181015183820152602001612628565b50506000910152565b60008151808452612661816020860160208601612625565b601f01601f19169290920160200192915050565b60208152600061100b6020830184612649565b60006020828403121561269a57600080fd5b5035919050565b80356001600160a01b03811681146126b857600080fd5b919050565b600080604083850312156126d057600080fd5b6126d9836126a1565b946020939093013593505050565b6000806000606084860312156126fc57600080fd5b612705846126a1565b9250612713602085016126a1565b9150604084013590509250925092565b6000806040838503121561273657600080fd5b50508035926020909101359150565b634e487b7160e01b600052604160045260246000fd5b600082601f83011261276c57600080fd5b813567ffffffffffffffff8082111561278757612787612745565b604051601f8301601f19908116603f011681019082821181831017156127af576127af612745565b816040528381528660208588010111156127c857600080fd5b836020870160208301376000602085830101528094505050505092915050565b600080604083850312156127fb57600080fd5b612804836126a1565b9150602083013567ffffffffffffffff81111561282057600080fd5b61282c8582860161275b565b9150509250929050565b6000806020838503121561284957600080fd5b823567ffffffffffffffff81111561286057600080fd5b61286c85828601612574565b90969095509350505050565b60006020828403121561288a57600080fd5b61100b826126a1565b801515811461141b57600080fd5b600080604083850312156128b457600080fd5b6128bd836126a1565b915060208301356128cd81612893565b809150509250929050565b600080600080608085870312156128ee57600080fd5b6128f7856126a1565b9350612905602086016126a1565b925060408501359150606085013567ffffffffffffffff81111561292857600080fd5b6129348782880161275b565b91505092959194509250565b6000806000806000806060878903121561295957600080fd5b863567ffffffffffffffff8082111561297157600080fd5b61297d8a838b01612574565b9098509650602089013591508082111561299657600080fd5b6129a28a838b01612574565b909650945060408901359150808211156129bb57600080fd5b506129c889828a01612574565b979a9699509497509295939492505050565b600080604083850312156129ed57600080fd5b6129f6836126a1565b9150612a04602084016126a1565b90509250929050565b634e487b7160e01b600052603260045260246000fd5b634e487b7160e01b600052601160045260246000fd5b600060018201612a4b57612a4b612a23565b5060010190565b600181811c90821680612a6657607f821691505b602082108103612a8657634e487b7160e01b600052602260045260246000fd5b50919050565b80820281158282048414176106c5576106c5612a23565b600082612ac057634e487b7160e01b600052601260045260246000fd5b500490565b60008351612ad7818460208801612625565b835190830190612aeb818360208801612625565b01949350505050565b60008085851115612b0457600080fd5b83861115612b1157600080fd5b5050820193919092039150565b6001600160e01b03198135818116916004851015612b465780818660040360031b1b83161692505b505092915050565b6001600160a01b03841681526040602082018190528101829052818360608301376000818301606090810191909152601f909201601f1916010192915050565b600060208284031215612ba057600080fd5b5051919050565b6001600160a01b0385811682528416602082015260408101839052608060608201819052600090612bda90830184612649565b9695505050505050565b600060208284031215612bf657600080fd5b815161100b81612541565b60008251612c13818460208701612625565b9190910192915050565b60008060408385031215612c3057600080fd5b8251612c3b81612893565b602084015190925063ffffffff811681146128cd57600080fd5b600060208284031215612c6757600080fd5b815161100b81612893565b601f821115610a9357600081815260208120601f850160051c81016020861015612c995750805b601f850160051c820191505b8181101561125d57828155600101612ca5565b815167ffffffffffffffff811115612cd257612cd2612745565b612ce681612ce08454612a52565b84612c72565b602080601f831160018114612d1b5760008415612d035750858301515b600019600386901b1c1916600185901b17855561125d565b600085815260208120601f198616915b82811015612d4a57888601518255948401946001909101908401612d2b565b5085821015612d685787850151600019600388901b60f8161c191681555b5050505050600190811b01905550565b818103818111156106c5576106c5612a23565b634e487b7160e01b600052603160045260246000fdfef3177357ab46d8af007ab3fdb9af81da189e1068fefdc0073dca88a2cab40a00645e039705490088daad89bae25049a34f4a9072d398537b1ab2425f24cbed0080bb2b638cc20bc4d0a60d66940f3ab4a00c1d7b313497ca82fb0b4ab007930068747470733a2f2f6170692e65766f7665727365732e636f6d2f6d657461646174612f65766f360894a13ba1a3210667c828492db98dca3e2076cc3735a920a3ca505d382bbc645e039705490088daad89bae25049a34f4a9072d398537b1ab2425f24cbed0268747470733a2f2f6170692e65766f7665727365732e636f6d2f6d657461646174612f65766f2fcd5ed15c6e187e77e9aee88184c21f4f2182ab5827cb3b7e07fbedcd63f03300a264697066735822122017f3e186fc25b01c7b9c8aeed9f40f65423cf8bcd5fb16418e76a43b49b8f05264736f6c63430008140033",
  "linkReferences": {},
  "deployedLinkReferences": {}
}